:1000000000308A00A62B0000831A0A289100030EF4
:1000100092000F2883129100030E920092140A0896
:1000200099008A018313910E040893000C08940030
:100030000D0895000E0896000F089700100898000C
:1000400083128B1E25280B19AB288B1D29280B1812
:1000500091281308840014088C0015088D001608D8
:100060008E0017088F001808900019088A00120ED9
:1000700083008312110E9218831609000A108A1049
:100080000A11820728340C34013406340A108A100D
:100090000A1182074334613473343A3425343434DA
:1000A0006C3475342E342534303433346C34753438
:1000B00073340A340D3400340A108A100A1182078E
:1000C0000C34543465347334743420344D346F3408
:1000D000643465340A3400340A108A100A11820725
:1000E0000A340D34533474346F3470346B347934CF
:1000F000203476342E3431342E34303430340D34D0
:100100000A3428346334293420346D346934683433
:100110006F34203432343034303434340A340D34D3
:1001200000349C0803199F28831606178312061BA8
:100130009E2802309C0064309A008B11A8288316F8
:1001400086178312861BA82801309C0064309A0011
:100150000B108A1129281C0BB52801309D070318A4
:100160009E0A03199F0A0319A00A1D08A43C031D37
:10017000C8281E08933C031DC8281F08D63C031D31
:10018000C828A008031DC828A0019F019E019D0149
:100190009A080319DE289A031B18D0280510D128C5
:1001A000051483160510013083129B061B18DA28EC
:1001B0008510DB2885148316851083120B118A1194
:1001C00029283B30840000080319F52801308D00F0
:1001D0008C018C0BE9288D0BE8284A308C008C0BA5
:1001E000EF2800000000800BE62800344118FA28B0
:1001F0000512FB280516831605128312C118022961
:1002000086100329861483168610831241190A2941
:1002100006110B290615831606118312C11912291E
:100220008611132986158316861183128515831668
:100230008511000083128511831685118312003405
:10024000BF08031D2529051126290515831605114B
:100250008312C00E4008C100F620C00E4008C10045
:10026000F6200D308C008C0B332900341430BB0089
:10027000E12005118316051183128511831685115E
:100280008312A2012208023C031C4E290230BB004B
:10029000E1200330C100F620A20A42290D308C0073
:1002A0008C0B50290230C100F6200D308C008C0BD5
:1002B0005729A2012208023C031C6A2922083E2079
:1002C000A300BF012308C00020210230BB00E120B1
:1002D000A20A5A29AE2B01303B02BD003C08023C69
:1002E000031D74294030BD073D088038BE00BF01A2
:1002F0003E08C000202100343A088C000C300C026B
:1003000003198F290A300C02031997290D300C02AA
:1003100003199D2908300C020319A229A729BF013E
:100320000130C00020210230BB00E120B3290130A0
:10033000BB000230BC006B21B3290130BB00BC0004
:100340006B21B329BF011030C0002021B3293A0826
:100350001F3C031CAD290730BA050130BF003A0825
:10036000C0002021B329003483160612831206121E
:1003700008308D000000000000008D17CE298D137D
:10038000BA0C03180616031C06120D17CE290D13FE
:100390008D0BC02900000000000006161C308400F0
:1003A000840BD02900008D1BBF290D1BC729E8290C
:1003B00021080139003A0319E0293908BA007C21E3
:1003C00021080239003A0319E8293908BA00B4298A
:1003D000003426088D0125020318F12925088C0018
:1003E000FD298C010830A700A50D8C0D26080C02F4
:1003F00003188C008D0DA70BF429003423088C0002
:10040000A31B062A241D102A20300B2A8C098C0AD3
:100410000C08A3002D308D00BA007C21241DA415EA
:100420002308A5006430A600E9210C08A3000D08EC
:100430003030031D222A2418A415A419282A241AAE
:100440002030242AA41124128D070D08BA007C2123
:100450002308A5000A30A600E9210C08A3000D0816
:100460003030031D372AA4193B2A241A20308D0767
:100470000D08BA007C213030A3072308BA007C2184
:10048000682A831686168312861E472A882AA301A5
:1004900023085C20A30ABA007C210B302302031D31
:1004A000482AA201831686178312861B592A013017
:1004B000A207831606178312061B602A0230A207C2
:1004C0000A30BA007C212208A3001830A400FE29BB
:1004D000A2080319872A2208033C031D712A04304D
:1004E000A20005108316051083128514831685104B
:1004F00083122208BB00E120051483160510831225
:1005000085108316851083122208BB00E120512A32
:10051000C32B8C018D018E018F01C101C201C3016A
:10052000C40140083F043E043D040319C72A20309B
:10053000C5000310B90DBA0DBB0DBC0DC10DC20D28
:10054000C30DC40D40084402031DB02A3F084302F6
:10055000031DB02A3E084202031DB02A3D08410295
:10056000031CC12A3D08C1023E08031C3E0FC20203
:100570003F08031C3F0FC3024008031C400FC40286
:1005800003148C0D8D0D8E0D8F0DC50B992A000057
:100590004130840000340408B3003B30B8009A3086
:1005A000B700CA30B600B5010A30B4003208BC004A
:1005B0003108BB003008BA002F08B9003808C00065
:1005C0003708BF003608BE003508BD008922000884
:1005D000AF00840A0008B000840A0008B100840A51
:1005E0000008B200FD3084078C08031D092B340875
:1005F000013A0319092B330803190A2B0F39340266
:100600000319042B03180F2BF030331B00308C0020
:100610000A2BB30130308C070C08B900D8213808F8
:10062000BC003708BB003608BA003508B900C00165
:10063000BF01BE010A30BD0089220F08B8000E08B4
:10064000B7000D08B6000C08B500B40BD62A00346C
:100650001F08AA001E08A9001D08A800A7011F085E
:10066000BC001E08BB001D08BA002708B900C00165
:10067000BF010330BE00E830BD0089220F08A5008D
:100680000E08A4000D08A3000C08A2002508BC0059
:100690002408BB002308BA002208B900C001BF012A
:1006A0000330BE00E830BD0089220F08A9000E0803
:1006B000A8000D08A7000C08A6002508BC00240807
:1006C000BB002308BA002208B900C001BF010330F3
:1006D000BE00E830BD0089220008AA00840A000894
:1006E000AB00840A0008AC00840A0008AD00FD30AD
:1006F0008407AE012E084620AE0AB900D821043086
:100700002E02031D7A2B043084002908B200280829
:10071000B1002708B0002608AF00CB222E30B90068
:10072000D821433084002D08B2002C08B1002B08DA
:10073000B0002A08AF00CB227330B900D8210A30AC
:10074000B900D8210D30B900D821003484011F3000
:100750008305831606128312061636290330A1007C
:10076000A20122086C20A20AB900D821203022025E
:10077000031DB12B6430BB00E1209C01831686175A
:1007800081138312412A08308C008C1DCF2B073037
:100790008101813084000008C0390F388000640076
:1007A000813084000008C0390C048000A0019F0142
:1007B0009E019D019A019C018B168B158B179C083D
:1007C0000319DF2B0130A1001C0BE82B2823E42B9D
:1007D00028236430BB00E1200230A1008B138B1B67
:0A07E000EE2B28238B17D62B6300A5
:02400E00F13F80
:00000001FF
;PIC16F84
