:1000000000308A0058290000831A0A288E00030E47
:100010008F000F2883128E00030E8F008F140A08A2
:1000200093008A0183138E0E040890000C0891003F
:100030000D08920083120B1E1F288B187E281008B3
:10004000840011088C0012088D0013088A000F0E1E
:10005000830083120E0E8F18831609000A108A106F
:100060000A11820728340C34013406340A108A102D
:100070000A1182074C3443344434203454346534F8
:1000800072346D3469346E3461346C3420343134FC
:100090002E34303400340A108A100A1182070A34D0
:1000A00049346E347634653472347434653464346F
:1000B000003408308C00831606148312061C5E2858
:1000C000CC018C1771288C1371280310061C0314A3
:1000D000CC0C0C1771280C138C0B65284C088D0068
:1000E0007D281C308C1B07308D008D0B752800007F
:1000F0008C1B63280C1B6B286528832814303C0755
:100100008400CB0059284B0884000D0880003C086F
:10011000263C031C8D28BC0A8E28BC0183160614BD
:10012000831206188E288B108A111F2841308400F4
:1001300000080319AA2801308D008C018C0B9E2821
:100140008D0B9D284A308C008C0BA42800000000E9
:10015000800B9B28003406080F39C800470E8C001E
:10016000F0308C050C08F03948048600851483169D
:1001700085100000831285108316851083120034C9
:10018000C508031DC5280510C628051483160510CB
:100190008312C60E4608C700AB20C60E4608C7002D
:1001A000AB200D308C008C0BD32800341430C100F0
:1001B00096200F30831686058312051083160510CE
:1001C00083128510831685108312BF013F08023CFD
:1001D000031CF2280230C10096200330C700AB2078
:1001E000BF0AE6280D308C008C0BF4280230C700C3
:1001F000AB200D308C008C0BFB28BF013F08023C6C
:10020000031C0E293F082E20C000C5014008C6006F
:10021000C0200230C1009620BF0AFE286C290130A0
:100220004102C3004208023C031D18294030C307A5
:1002300043088038C400C5014408C600C02000340B
:1002400040088C000C300C02031933290A300C02D0
:1002500003193B290D300C020319412908300C0207
:10026000031946294B29C5010130C600C0200230C0
:10027000C100962057290130C1000230C2000F2171
:1002800057290130C100C2000F215729C501103084
:10029000C600C020572940081F3C031C51290730C5
:1002A000C0050130C5004008C600C02057290034F1
:1002B00084011F308305831605108312051000305A
:1002C00083168500831285018316860083128601BA
:1002D000831606148312D628BF013F083620BF0AB2
:1002E000C000202110303F02031D6D29BF013F08CF
:1002F0004B20BF0AC000202109303F02031D77298F
:100300000230BF009630C1009620BF0B82290C300E
:10031000C0002021BC01BD018316011783120B16FA
:100320008B173D083C02031D9629912914303D0787
:1003300084000008BF00C00020213D08263C031CAB
:0C034000A329BD0AA429BD019129630076
:02400E00FA3F77
:00000001FF
;PIC16F84
