:1000000000308A00042A0000FF00030E8301A100D3
:100010007F08A0000A08A8008A01A00E0408A20018
:100020007708A3007808A4007908A5007A08A6003C
:100030007B08A700831383128C308400801D222844
:100040008C1939288B1E26280B193B28220884007E
:100050002308F7002408F8002508F9002608FA000C
:100060002708FB0028088A00210E8300FF0E7F0E60
:1000700009008A1196288A11C4280A108A100A11C8
:100080008207023406340E341E343E347E34FE348D
:10009000FF340A108A100A1182070C344D346F3471
:1000A000643465343A342534643400340A108A10D8
:1000B0000A1182070A34503457344D343A34253407
:1000C0003034333475342034523455344E343A3469
:1000D000253430343334753400340A108A100A1150
:1000E00082070A34523455344E343A34203425349D
:1000F000333475346D347334203400340A108A106C
:100100000A1182070A3441344C3447343A342534D6
:10011000303433347534203425343034333475344A
:1001200020342534303433347534003429089300B6
:100130008C118A112628C308031DAA2883160611CC
:1001400083120611831694018312940183168C1175
:10015000C22883124308073C0318B0280830C300A4
:10016000C30343083D20F800A9008316061183123B
:1001700006118316940122308312940029089300FB
:1001800083168C15831200342A082B040319CC28FB
:100190002A080319AB03AA03AC080319D028AC033F
:1001A000AE080319E0282E08073C031CE028AC0821
:1001B000031DE0282D08AC00AE0A2E08C3009B20CA
:1001C0000B118A1126281A30831699008030831269
:1001D000980024308316980083128A11282A3C3014
:1001E00084000008031905290130F800BF30F7002A
:1001F0006400F70BF828F80BF6285830F700F70BD7
:10020000FF2800006400800BF428003400308316BF
:1002100098180130003A031D10298312062983160D
:1002200083124008990000344108F8014002031885
:100230001C294008F7002829F7010830C200C00D2A
:10024000F70D410877020318F700F80DC20B1F29BC
:1002500000343D08F700BD1B31293E1D3B292030ED
:100260003629F709F70A7708BD002D30F800C000DD
:1002700006213E1DBE153D08C0006430C10014219A
:100280007708BD0078083030031D4D293E18BE1593
:10029000BE1953293E1A20304F29BE113E12F807CD
:1002A0007808C00006213D08C0000A30C1001421B2
:1002B0007708BD0078083030031D6229BE19662911
:1002C0003E1A2030F8077808C00006213030BD07FC
:1002D0003D08C00006218A11692A83160108C03929
:1002E0000138810083128B16C0308B048A11772A63
:1002F0003C08043C031D8029831686108312861453
:10030000303083169F0083123C0DF700F70DF70D78
:10031000F830F7057708413E9F001130F700F70BE2
:100320008F291F151130F700F70B942983168610BB
:10033000831286101E08F800003478083E08C000BA
:100340006430C10014217708BE0078083030031DE6
:10035000B0293F18BF15BF19B6293F1A2030B2295E
:10036000BF113F12F8077808C00006213E08C00000
:100370000A30C10014217708BE0078083030031D10
:10038000C529BF19C9293F1A2030F8077808C000CD
:1003900006213030BE073E08C000062100340B089D
:1003A0000B058B13A0003C08C3009B20A01B8B17E0
:1003B000C0308B0400348B123D08AB003C08AA000F
:1003C0008B1600348B12AA08031DE929AB08031908
:1003D000EB293C10EC293C148B1600303C18013002
:1003E000F80000348B120130AE003C08AD002D083F
:1003F000AC008B160B080B058B13A0000130C3005B
:100400009B20A01B8B17003484011F3083058316AB
:100410009F019D01073083129F00623083168F0079
:100420008611831286118316061183120611831614
:100430008610831286108316811381110E30831269
:10044000031785001F30831603139B008312E328D4
:100450000130B00030081D3C031C452A3118322AF7
:100460000513332A05178316051301308312B106CD
:1004700031183C2A85133D2A8517831685130130D0
:100480008312BC00EF20B00A2A2AAF018316861718
:100490008312861B4C2A2F14831606178312061B01
:1004A000522AAF14831686138312861383160613FB
:1004B00083120613BC013C084920BC0AC000062177
:1004C00006303C02031D5B2A2F08BD001830BE0019
:1004D00029291F30831692000430831292000C30B9
:1004E0009700950183168611831286116D292F0BB3
:1004F000B02A6400BC0178217808B200B20CB20CBA
:100500003F30B2050130BC0078217808B300B30E4B
:100510000F30B305BC013C085620BC0AC0000621C0
:1005200005303C02031D8B2A3208BE00BF019D210D
:100530000930BD003D085620BD0AC00006210E301E
:100540003D02031D9A2A3308BE00BF019D211430CD
:10055000BC00EF20320895003308BC00CF21792A77
:100560002F08023C031D002BB5010130BC0078218F
:100570007808B400BC013C086D20BC0AC00006210C
:1005800006303C02031DBB2A3408BE001030BF00F9
:100590009D216D30C00006217330C000062120303F
:1005A000C00006210A30BC00EF20B508031DDE2A7A
:1005B000B50A0730BD00D030BC00DB21350BF02A76
:1005C000E221F8080319F02AB50A5230C0000621CA
:1005D0003408BC00F2210730BD00D030BC00DB2164
:1005E0003508023C031DFE2AE221F8080319FE2A01
:1005F000B50A5330C0000621BC01CF216400B52AE2
:100600002F08033C031D5A2BB6016400BC0178215E
:100610007808B700BC0178210310780CF700323E4F
:10062000B7000430BC0078217808B80037083802D9
:1006300003181F2B36081D3C031C1F2BB60A370856
:100640003802031C272BB6080319272BB6030A30E0
:10065000B807370838020318322B36081D3C031C34
:10066000322BB60A3608183C0318382B1830B6005F
:1006700036089500BC013C087E20BC0AC00006215B
:1006800005303C02031D3B2B3708BE00BF019D21F6
:100690002030C00006213808BE00BF019D21203057
:1006A000C00006213608BE00BF019D210A30BC00F3
:1006B000EF20052BAF08031DC32BB9013630BD0059
:1006C000B030BC00DB21B1146400BC017821780893
:1006D000BA00BC0178210310780CF700323EBA0052
:1006E0000430BC0078217808BB003A083B020318AC
:1006F0007E2B39081D3C031C7E2BB90A3A083B02AD
:10070000031C862BB9080319862BB9030A30BB07D3
:100710003A083B020318912B39081D3C031C912B0E
:10072000B90A3908183C0318972B1830B900390852
:100730009500BC013C087E20BC0AC00006210530A3
:100740003C02031D9A2B3A08BE00BF019D212030B8
:10075000C00006213B08BE00BF019D212030C00023
:1007600006213908BE00BF019D210A30BC00EF20E0
:10077000E221F8080319C22BB11CC22BB110413081
:08078000BC00F221642B6300B0
:02400E003C2F45
:00000001FF
;PIC16F88
