:1000000000308A005F2A0000FF00030E8301A10078
:100010007F08A0000A08A8008A01A00E0408A20018
:100020007708A3007808A4007908A5007A08A6003C
:100030007B08A700831383128C308400801D222844
:100040008C1939288B1E26280B193B28220884007E
:100050002308F7002408F8002508F9002608FA000C
:100060002708FB0028088A00210E8300FF0E7F0E60
:1000700009008A11A5288A11D3280A108A100A11AA
:100080008207023406340E341E343E347E34FE348D
:10009000FF340A108A100A1182070C344D346F3471
:1000A000643465343A342534643400340A108A10D8
:1000B0000A1182070A34503457344D343A34253407
:1000C0003034333475342034523455344E343A3469
:1000D000253430343334753400340A108A100A1150
:1000E00082070A34523455344E343A34253433348A
:1000F00075346D347334203400340A108A100A11B8
:1001000082070A3441344C3447343A34253430348D
:10011000333475342034253430343334753420345A
:10012000253430343334753400340A108A100A11FF
:1001300082072034523455344E343A342534333423
:1001400075346D347334203400342A0893008C11D4
:100150008A112628C508031DB928831606118312A3
:100160000611831694018312940183168C11D128F1
:1001700083124508073C0318BF280830C500C50393
:1001800045083D20F800AA008316061183120611C7
:10019000831694012230831294002A089300831658
:1001A0008C15831200342B082C040319DB282B0830
:1001B0000319AC03AB03AD08031DAD03AF0803196E
:1001C000EE282F08073C031CEE28AD08031DEE287F
:1001D0002E08AD00AF0A2F08C500AA200B118A1106
:1001E00026281A3083169900803083129800243014
:1001F0008316980083128A118A2A1130BF02031CC9
:100200000F293F308400FC3080050310800C800CE7
:10021000000803190F290D296400800B0C298A118D
:10022000A82A8316981816298312112983124208C6
:10023000990000344308F8014202031822294208B9
:10024000F7002E29F7010830C400C20DF70D43084E
:1002500077020318F700F80DC40B25290034BF1FDF
:100260003529C017BF09BF0A3C29401D3C29203051
:10027000401E3030C20011214013C0123F08C2009E
:100280006430C3001A217708BF007808031D66296F
:10029000C01A6629C0197429401B542940185429D2
:1002A00040195429C01B7429401C6029C01B7429A3
:1002B000401B60294018742940196029C01B74290B
:1002C0002030401E3030C20011217429C016C01FDA
:1002D000702978088000F8002D30C2001121C01369
:1002E00030307807C2001121401B7F293F08C2002F
:1002F0000A30C3001A217708BF0040174529C01FE4
:1003000084292D30C200112130303F07C200112155
:100310008A11CF2A83160108C0390138810083125F
:100320008B16C0308B048A11DD2A3E08043C031D65
:100330009D298316861083128614303083169F0001
:1003400083123E0DF700F70DF70DF830F70577082B
:10035000413E9F0064001030F700F70BAD2900000C
:1003600000001F1564001030F700F70BB5290000DE
:10037000000083168610831286101E08F8000034D1
:100380004113C1124008C2006430C3001A2177082B
:10039000C0007808031DEA29C11AEA29C119F82901
:1003A000411BD8294118D8294119D829C11BF8293E
:1003B000411CE429C11BF829411BE4294118F829F3
:1003C0004119E429C11BF8292030411E3030C200F8
:1003D0001121F829C116C11FF42978088000F800FE
:1003E0002D30C2001121C11330307807C200112115
:1003F000411B032A4008C2000A30C3001A217708B3
:10040000C0004117C929C11F082A2D30C20011217F
:1004100030304007C200112100343E308400000813
:100420000319232A0130F800BF30F7006400F70BEE
:10043000162AF80B142A5830F700F70B1D2A000073
:100440006400800B122A0034A9018B1BA9178B139F
:100450003E08C500AA20A91B8B17C0308B040034AE
:100460008B123F08AC003E08AB008B1600348B1299
:10047000AB08031D3E2AAC080319402A0030412A6C
:100480000130F8007818462A3E10472A3E148B1691
:1004900000303E180130F80000348B120130AF00FC
:1004A0003E08AE002E08AD008B16A9018B1BA917C4
:1004B0008B130130C500AA20A91B8B1700348401BF
:1004C0001F30830583161F129F121B0880399B0063
:1004D00007309C00050864001C0883120D1362306D
:1004E00083168F00861183128611831606118312DC
:1004F00006118316861083128610831681138111CC
:100500000E308312031785001F30831603139B00E0
:100510008312F1280130B10031081D3C031CAC2AC4
:100520003218942A0513952A0517831605130130EE
:100530008312B20632189E2A85139F2A85178316C6
:100540008513640009308312BE006C30BF00FD28A3
:10055000BE0BA52AB10A8C2AB00183168617831216
:10056000861F3014831606178312061FB0148316D5
:100570008613831286138316061383120613BE0195
:100580003E084920BE0AF700C200112106303E0293
:10059000031DC02A3008BF001830C0002F291F30AB
:1005A000831692000430831292000C30970095015C
:1005B00083168611831286118A29300B182B64004A
:1005C000BE0195217808B300B30CB30C3F30B305DE
:1005D0000130BE0095217808B400B40E0F30B40588
:1005E000BE013E085620BE0AF700C20011210530A8
:1005F0003E02031DF12A3308C000C101C0210930A9
:10060000BF003F085620BF0AF700C20011210E307C
:100610003F02031D012B3408C000C101C02114306A
:10062000BE000D22330895003408BE002422DF2AC4
:100630003008023C031D692BB6010130BE00952134
:100640007808B500BE013E086D20BE0AF700C20062
:10065000112105303E02031D232B3508C000103048
:10066000C100C0216D30C20011217330C2001121C0
:100670002030C20011210A30BE000D22B608031D31
:10068000472BB60A0730BF00D030BE003022360BF1
:10069000592B3722F8080319592BB60A5230C200D9
:1006A00011213508BE004D220730BF00D030BE00FA
:1006B00030223608023C031D672B3722F808031945
:1006C000672BB60A5330C2001121BE0124226400F8
:1006D0001D2B3008033C031DC02BB7016400BE0175
:1006E00095217808B800BE0195210310780C323EA0
:1006F000B8000430BE0095217808B90038083902E6
:100700000318862B37081D3C0318B70A380839022E
:10071000031C8D2BB708031DB7030A30B90738082F
:1007200039020318972B37081D3C0318B70A3708FE
:10073000183C03189D2B1830B70037089500BE01F0
:100740003E087D20BE0AF700C200112105303E029E
:10075000031DA02B3808C000C101C0212030C200F9
:1007600011213908C000C101C0212030C20011216F
:100770003708C000C101C0210A30BE000D226E2B17
:10078000B008031D472C0130BE0095217808BD003C
:10079000BE013E089520BE0AF700C20011210530B7
:1007A0003E02031DC92B3D08C0001030C100C0210E
:1007B0006D30C20011217330C20011212030C200FF
:1007C00011210A30BE000D22BA013630BF00B03010
:1007D000BE003022B2146400BE0195217808BB002F
:1007E000BE0195210310780C323EBB000430BE00E0
:1007F00095217808BC003B083C020318032C3A08FA
:100800001D3C0318BA0A3B083C02031C0A2CBA0818
:10081000031DBA030A30BC073B083C020318142C22
:100820003A081D3C0318BA0A3A08183C03181A2C57
:100830001830BA003A089500BE013E087D20BE0A75
:10084000F700C200112105303E02031D1D2C3B089C
:10085000C000C101C0212030C20011213C08C000ED
:10086000C101C0212030C20011213A08C000C101DD
:10087000C0210A30BE000D223722F8080319462C89
:10088000B21C462CB2103D08BE004D22EB2B63007B
:04400E003C2FFF3F05
:00000001FF
;PIC16F88
