:1000000000308A00902D0000FF00030E8301A10044
:100010007F08A0000A08A8008A01A00E0408A20018
:100020007708A3007808A4007908A5007A08A6003C
:100030007B08A700831383128C308400001D2228C4
:100040000C19CB28220884002308F7002408F800A4
:100050002508F9002608FA002708FB0028088A006E
:10006000210E8300FF0E7F0E09000A108A100A116C
:1000700082074E349534ED348C34043485348D3419
:100080007D3481347634DB346F3493346934A63470
:1000900063340E345E34C7345834CB34533417349D
:1000A0004F340A108A100A11820750344C344134FC
:1000B0005934003450344534523441345334453487
:1000C00000344534543445344D3450344F340034C6
:1000D000743450344134553453344534003470341E
:1000E00042344534473449344E3400344234543475
:1000F0004534533454340034623445344E3444343B
:1001000000345A34433400340034433449345334D3
:100110000034013444340034023444344934533418
:100120000034033445340034043446340034053498
:1001300046344934533400340634473400340734E9
:1001400047344934533400340834413400340934DA
:1001500041344934533400340A34483400340B34C5
:100160005334503441344334453400340C340A1091
:100170008A100A1182070034013402340534033432
:10018000063408340B340434073409340C340A348C
:100190000D340E340F347218CF288611D0288615EE
:1001A00083168611721CD82883120611DA2883164A
:1001B00083120615831606110130F20683120C1104
:1001C0008A11222869080C3C031909290B30970071
:1001D0008F018E010310690DF700EF006F0A3520C3
:1001E000FA006F083520F0007A08F10096007008D8
:1001F00095006A08F700031902290310960C950C64
:10020000F70BFD289530900083160C15C030831233
:100210008B04EE01ED0183160108C0390838810016
:1002200083126B086C04031932290B1D1C290B1156
:100230006930ED070318EE0AFA016E0CF900F90CAB
:10024000F90C1F30F90579087A04031931290030B7
:10025000ED020830031C0930EE026B080319EC03B1
:10026000EB03112983160C1183120B138B138B1BB9
:1002700036290034AD1C3E290530B3000230E100C0
:10028000B308031950296108E10AE2000930E900C6
:100290006208EA00EC013230EB00E220B3034029AF
:1002A000AD1000340830F700831686148312861CC4
:1002B0005729E101F7176A29F7136A290310861CE9
:1002C0000314E10C77176A297713F70B5E2961088D
:1002D000F8007629A730F71B2D30F800F80B6E29AF
:1002E0000000F71B5C29771B64295E29003410305D
:1002F000F700FA01EC01E90CE80C031C85296A08F7
:10030000FA070318EC0A6B08EC07EC0CFA0CF90C72
:10031000F80CF70B7B2900346208840061080007A1
:1003200084000008203C03199729003098290130E7
:10033000E9006208840063080002031CA129003060
:10034000A22901306905003A0319AA29620884002C
:10035000800A8C29E501E401620884006308000238
:10036000031CB7296408F8006508F900EA29620847
:1003700084006108000784000008E60066082F3C3E
:100380000318C4290030C5290130E7006608393C4C
:10039000031CCC290030CD2901306704003A031931
:1003A000D6296408F8006508F900EA296508E9001B
:1003B0006408E800EB010A30EA0077213030660279
:1003C0007807E4007908E5000318E50A620884006C
:1003D000800AAC290034290803178D0003132A086A
:1003E00003178F0083168C170C1400000000831273
:1003F0000C080313E10003170E080313E200620860
:10040000AC006108AB0000340530AA00FF30A90041
:10041000A90A0319AA0AEB212B0F152A2C083F3C25
:10042000031D152A0130F800322AA908031D1F2ACE
:100430002A08083C031D1F2A0130F800322A2B0825
:100440000039E1002C083839E200E108031D312AA7
:100450006208203C031D312AB40B312A0030F80019
:10046000322A082A00342B080F39E1002B0EF7003E
:100470000F30F705770807393207E3002C0CE50049
:100480002B0CE400E50CE40CE50CE40CE50CE40CAE
:10049000E50CE40CE50CE40CE50CE40C0130E5059E
:1004A00064083F39F70065080039FA007708E6006C
:1004B0007A08E7002F08E9002E08E8007A08EB0028
:1004C0007708EA0077217908E8007808E7006108F2
:1004D000E9006308EA007908EC007808EB00E22004
:1004E0000C30E900EA013108EC003008EB00E220B2
:1004F00000340422F80803197E2ADB2AAF01643095
:10050000AE00B101B0002B08B200A90A0319AA0A73
:10051000A908031D902A2A08083C031D902ADB2AFB
:10052000EB21A90A0319AA0A2B0F9B2A2C083F3C8E
:10053000031D9B2ADB2A2B080039E1002C083839DF
:10054000E200E108031DA92A6208203C031DA92A34
:10055000DB2A2B080039E1002C083839E200E108D9
:10056000031DBB2A6208283C031DBB2A2B08AE00D2
:100570002C08D739AF002B080039E1002C08383996
:10058000E200E108031DCD2A6208303C031DCD2A9C
:100590002B08B0002C08CF39B1002B080039E1003E
:1005A0002C082039E200E108031DDA2AE208031DC5
:1005B000DA2A3322882A00342D18DF2A462B2A080B
:1005C000053C031CE52A0030E62A0130E1002A0838
:1005D000073C0318ED2A0030EE2A01306105E200E5
:1005E000831685150030831285190130003A0319EE
:1005F000FB2A0030FC2A01306205003A0319452B22
:10060000831603178C170C15831203132908FC3962
:1006100003178D0003132A0803178F000313E1014A
:100620006108033C031C3B2B29080339E2002A081C
:100630000039E30061086202031D2A2BE308031D51
:100640002A2B2B0803178C0003132C0803178E008A
:100650002E2B0313FF3003178C008E0055308316AA
:100660008D00AA308D008C140000000083128D0ACA
:100670000313E10A102B831603170C118C1383123A
:100680000313A90A0319AA0A462BAD1400348316D2
:100690000512831205120C30E9000330EA00EC0168
:1006A0000A30EB00E2200330B300AD103A21AF0175
:1006B0006430AE00B101B000B2012D10E001DE01E6
:1006C000831685150030831285190130003A031D09
:1006D0008F2D52217808DD005D087F3C0318712BB7
:1006E000692B5D085F3C0318772B2030DD025D0825
:1006F0000D3C03197D2B00307E2B0130E1005D089D
:100700002F3C0319852B0030862B01306104003A01
:1007100003195B2D5D080D3C0319922B52217808BB
:10072000DD008A2B5E08DF00DE010130B3005F08C8
:100730005E020318582D3530E1005E30E2005F089C
:10074000E300620884006108000784000008203C80
:100750000319AC2B0030AD2B0130E8006208840097
:1007600063080002031CB62B0030B72B013068056C
:10077000003A0319BF2B62088400800AA12BE40110
:100780006408613C031C2B2C620884000008E5000F
:1007900063086502031CCE2B0030CF2B0130E6002E
:1007A00064085120003A031DD72B0030D82B0130AC
:1007B0006605E80064085120E900610865078400C7
:1007C000000869020319E62B0030E72B01306805A9
:1007D000003A0319EF2B6408E40AE50AC82B640801
:1007E0005120003A0319F62B0030F72B0130E700B7
:1007F0006108650784000008203C0319012C0030C3
:10080000022C0130E900630865020319092C00304D
:100810000A2C013069046705003A0319212C63088A
:100820006502031C162C01306302E5006208840097
:10083000013065078000013064075120F800F8009E
:100840002D2C64085120003A0319282CE40A212C8D
:10085000E40AE40AC02BFF30F8007808DD005D08E8
:10086000FF3C031D662C5F085E020318652C3530C3
:100870005E07840000082F3C031C402C0030412CF4
:100880000130E20035305E0784000008393C03186F
:100890004B2C00304C2C01306205003A03195C2CC3
:1008A0003530E1005E30E2005F08E3008C2178081B
:1008B000E0000730E005652C35305E078400000855
:1008C000203C0319642CAD14DE0A572D5D08503C02
:1008D000031D782C3530E1005E30E2005F08E30054
:1008E0008C217808B4002D1079220330B300572DE5
:1008F0005D08453C031DB62C2D100630AA00A90149
:100900002A08073C031CB32CEB212B0F8B2C2C0843
:100910003F3C0319AF2C83168515003083128519CF
:100920000130003A0319952CB32C290803178D00C8
:1009300003132A0803178F0083168C170C150C1647
:1009400055308D00AA308D008C14000000000C1171
:100950000C128C13023083120313B3003A21A90A3C
:100960000319AA0A802C0330B300572D5D08743C8C
:10097000031DD62C3530E1005E30E2005F08E30055
:100980008C217808AE007908C739AF00AE08031D86
:10099000CF2CAF08031DCF2CAF016430AE002E0862
:1009A000AB002F082838AC00DC22572D5D08703CC6
:1009B000031DF62C3530E1005E30E2005F08E300F5
:1009C0008C217808B0007908C739B100B008031D40
:1009D000EF2CB108031DEF2CB1016430B0003008DA
:1009E000AB0031083038AC00DC22572D5D08423CAA
:1009F000031D0D2DFF30B40004223530E1005E30C0
:100A0000E2005F08E3008C217808B2003208AB00F6
:100A10002030AC002D14DC22572D5D08623C031DF4
:100A20001C2D3530E1005E30E2005F08E3008C21D0
:100A30007808B2002D10572D5D085A3C031D222D59
:100A40002D10572D3530E1005E30E2005F08E300E5
:100A50008C217908AC007808AB003F30AB05003042
:100A6000AC05AB08031D3A2DAC08031D3A2DAB0AAB
:100A70000319AC0AAB0DAC0DAB0DAC0DAB0DAC0D51
:100A8000AB0DAC0DAB0DAC0DAB0DAC0DAB0DAC0DA2
:100A90008030AB055D08AB04600EF700F030F70561
:100AA0007708AB04DC222D18572D3322B301972B86
:100AB000DE013A21692B5D08083C0319612D0030E5
:100AC000622D0130E100DE08031D682D0030692D24
:100AD00001306105003A03196F2DDE03692B5D08B3
:100AE0002C3C0319752D0030762D0130E1005D0896
:100AF000203C03187D2D00307E2D01306104003A2A
:100B00000319842D2030DD005E08273C031C8E2D48
:100B10005E08DE0A353E84005D088000602BBE2D35
:100B200084011F308305073083169F000510831250
:100B300005108316811308308500F03086000630DA
:100B40009F0085150030831285190130003A031982
:100B5000AB2D0030AC2D0130B6008316861400306A
:100B6000831286180130003A0319B82D0030B92DD0
:100B700001303605003A0319BE2D472B8316851127
:100B8000831285110C30E9000330EA00EC010A30D1
:100B9000EB00E22083160512831205120C30E900E7
:100BA0000330EA00EC016430EB00E220060EF700AF
:100BB0000F30F70577080F3AB4003408B720F80073
:100BC000B40079220608003A0319E62D0B108B15A4
:100BD000831605128312051683168515630083128A
:060BE0008B11992D63004A
:100C000003206428643099009700190212020C0135
:100C10009A0099001A01190117020C019A00990013
:100C20001A0212020C019700950017011501140118
:100C3000170115020C019400950017020C01950094
:100C40009700190117011501140112021A02190265
:100C50000C0199009A009900970019020C010220DA
:100C6000642864301901200124012901270224018C
:100C70002401290127012401220124020C02190167
:100C80002001240129012701270124012401190140
:100C900024011B01240119020C0219012001240165
:100CA000290127012701240229012701240122010A
:100CB00024020C012401190120012401290127012A
:100CC000240224012901290128012B0129020C04F5
:100CD00024012901290129012801260129022901CC
:100CE0002B012B0129012B013101290224012901AA
:100CF00029012901280126012901290129012B01A6
:100D00002B012901280129020C01240129012901B3
:100D1000290128012601290229012B012B01290182
:100D20002B0131012902240129012901290128016E
:100D3000260129010C0129012B012B012901280180
:100D40002904270129042701290402209628643058
:100D50009900A000A400A200A0009B002001A20016
:100D60002401A200A700A700A700A700A900240152
:100D70000C02A200A500A900A700A500A400A400E1
:100D8000A500A400A000190198009B00A400A200E7
:100D90009B00A00019010C011B0120010C01220184
:100DA000A400A400A400A2009B00A000190101203F
:100DB0009628643090009000900094009200870084
:100DC00090010C029400940094009400920097000B
:100DD00014010C0297009700990097009500940069
:100DE00095009900970095009400920090008B0068
:100DF000900094009200870090010C0299009900E5
:100E0000990099009B00A20020020C01A400A400FC
:100E1000A400A400A200A70024020C01A700A700C0
:100E2000A900A700A500A400A500A900A700A5008F
:100E3000A400A200A0009B00A000A400A2009700B4
:100E400020020C011003070192018C01970097000A
:100E5000960097009900960017010C0297009700E2
:100E600099009700950094009500990097009500CF
:100E7000940092001003140192018C0110030701E9
:100E800092018C01970097009600970099009600B8
:100E900017010C02970097009900970095009400A5
:100EA00095009900970095009400920090008B00A7
:0E0EB000900094009200870010010C02FF3F9A
:02400E00223955
:00000001FF
;PIC16F819
